{
  "contractName": "CST",
  "abi": [
    {
      "inputs": [],
      "payable": false,
      "stateMutability": "nonpayable",
      "type": "constructor"
    },
    {
      "constant": true,
      "inputs": [],
      "name": "info",
      "outputs": [
        {
          "internalType": "bytes32",
          "name": "patientID",
          "type": "bytes32"
        },
        {
          "internalType": "bytes32",
          "name": "requestID",
          "type": "bytes32"
        },
        {
          "internalType": "int256",
          "name": "prog",
          "type": "int256"
        },
        {
          "internalType": "uint256",
          "name": "statusMsg",
          "type": "uint256"
        },
        {
          "internalType": "bool",
          "name": "result",
          "type": "bool"
        },
        {
          "internalType": "uint256",
          "name": "resultMsg",
          "type": "uint256"
        }
      ],
      "payable": false,
      "stateMutability": "view",
      "type": "function"
    },
    {
      "constant": true,
      "inputs": [],
      "name": "lab",
      "outputs": [
        {
          "internalType": "address",
          "name": "",
          "type": "address"
        }
      ],
      "payable": false,
      "stateMutability": "view",
      "type": "function"
    },
    {
      "constant": true,
      "inputs": [],
      "name": "patient",
      "outputs": [
        {
          "internalType": "address",
          "name": "",
          "type": "address"
        }
      ],
      "payable": false,
      "stateMutability": "view",
      "type": "function"
    },
    {
      "constant": true,
      "inputs": [],
      "name": "permitted",
      "outputs": [
        {
          "internalType": "address",
          "name": "",
          "type": "address"
        }
      ],
      "payable": false,
      "stateMutability": "view",
      "type": "function"
    },
    {
      "constant": true,
      "inputs": [],
      "name": "testAdmin",
      "outputs": [
        {
          "internalType": "address",
          "name": "",
          "type": "address"
        }
      ],
      "payable": false,
      "stateMutability": "view",
      "type": "function"
    },
    {
      "constant": false,
      "inputs": [
        {
          "internalType": "address",
          "name": "from",
          "type": "address"
        },
        {
          "internalType": "bytes32",
          "name": "password",
          "type": "bytes32"
        }
      ],
      "name": "getPatientID",
      "outputs": [
        {
          "internalType": "bytes32",
          "name": "pid",
          "type": "bytes32"
        }
      ],
      "payable": false,
      "stateMutability": "nonpayable",
      "type": "function"
    },
    {
      "constant": false,
      "inputs": [
        {
          "internalType": "bytes32",
          "name": "patientID",
          "type": "bytes32"
        },
        {
          "internalType": "bytes32",
          "name": "password",
          "type": "bytes32"
        }
      ],
      "name": "getRequestID",
      "outputs": [
        {
          "internalType": "bytes32",
          "name": "rid",
          "type": "bytes32"
        }
      ],
      "payable": false,
      "stateMutability": "nonpayable",
      "type": "function"
    },
    {
      "constant": false,
      "inputs": [
        {
          "internalType": "bytes32",
          "name": "patientID",
          "type": "bytes32"
        },
        {
          "internalType": "bytes32",
          "name": "password",
          "type": "bytes32"
        }
      ],
      "name": "getStatus",
      "outputs": [
        {
          "internalType": "uint256",
          "name": "smsg",
          "type": "uint256"
        }
      ],
      "payable": false,
      "stateMutability": "nonpayable",
      "type": "function"
    },
    {
      "constant": false,
      "inputs": [
        {
          "internalType": "bytes32",
          "name": "requestID",
          "type": "bytes32"
        }
      ],
      "name": "accessResult",
      "outputs": [
        {
          "internalType": "uint256",
          "name": "rmsg",
          "type": "uint256"
        }
      ],
      "payable": false,
      "stateMutability": "nonpayable",
      "type": "function"
    },
    {
      "constant": false,
      "inputs": [
        {
          "internalType": "address",
          "name": "tester",
          "type": "address"
        },
        {
          "internalType": "address",
          "name": "labAddr",
          "type": "address"
        },
        {
          "internalType": "bytes32",
          "name": "password",
          "type": "bytes32"
        }
      ],
      "name": "distPatientID",
      "outputs": [],
      "payable": false,
      "stateMutability": "nonpayable",
      "type": "function"
    },
    {
      "constant": false,
      "inputs": [
        {
          "internalType": "address",
          "name": "permitted",
          "type": "address"
        },
        {
          "internalType": "bytes32",
          "name": "password",
          "type": "bytes32"
        }
      ],
      "name": "distRequestID",
      "outputs": [],
      "payable": false,
      "stateMutability": "nonpayable",
      "type": "function"
    },
    {
      "constant": false,
      "inputs": [
        {
          "internalType": "address",
          "name": "tester",
          "type": "address"
        }
      ],
      "name": "regTester",
      "outputs": [
        {
          "internalType": "bytes32",
          "name": "tid",
          "type": "bytes32"
        }
      ],
      "payable": false,
      "stateMutability": "nonpayable",
      "type": "function"
    },
    {
      "constant": false,
      "inputs": [
        {
          "internalType": "bytes32",
          "name": "patientID",
          "type": "bytes32"
        },
        {
          "internalType": "bytes32",
          "name": "testerID",
          "type": "bytes32"
        }
      ],
      "name": "cSampleTaken",
      "outputs": [],
      "payable": false,
      "stateMutability": "nonpayable",
      "type": "function"
    },
    {
      "constant": false,
      "inputs": [
        {
          "internalType": "bytes32",
          "name": "patientID",
          "type": "bytes32"
        },
        {
          "internalType": "bytes32",
          "name": "testerID",
          "type": "bytes32"
        }
      ],
      "name": "cSampleShipped",
      "outputs": [],
      "payable": false,
      "stateMutability": "nonpayable",
      "type": "function"
    },
    {
      "constant": false,
      "inputs": [
        {
          "internalType": "bytes32",
          "name": "patientID",
          "type": "bytes32"
        },
        {
          "internalType": "bytes32",
          "name": "labID",
          "type": "bytes32"
        }
      ],
      "name": "cSampleTesting",
      "outputs": [],
      "payable": false,
      "stateMutability": "nonpayable",
      "type": "function"
    },
    {
      "constant": false,
      "inputs": [
        {
          "internalType": "bytes32",
          "name": "patientID",
          "type": "bytes32"
        },
        {
          "internalType": "bytes32",
          "name": "testerID",
          "type": "bytes32"
        }
      ],
      "name": "cResultUpload",
      "outputs": [],
      "payable": false,
      "stateMutability": "nonpayable",
      "type": "function"
    }
  ],
  "bytecode": "0x608060405234801561001057600080fd5b5033600160006101000a81548173ffffffffffffffffffffffffffffffffffffffff021916908373ffffffffffffffffffffffffffffffffffffffff16021790555061019060026003018190555060006002800181905550610d99806100776000396000f3fe608060405234801561001057600080fd5b50600436106101005760003560e01c80639991826011610097578063d89fad7411610066578063d89fad74146104a2578063e449dfa5146104da578063f01228521461051c578063ff4b28051461056a57610100565b806399918260146103605780639d96732b146103c2578063b1f9e4601461040c578063bd96bd201461045857610100565b80634724eee2116100d35780634724eee21461025a5780634dad6a9e146102925780635c1e191f146102dc5780638e56ee2c1461031457610100565b806311e1109114610105578063134f955b146101735780632c799ce9146101cb578063370158ea14610215575b600080fd5b6101716004803603606081101561011b57600080fd5b81019080803573ffffffffffffffffffffffffffffffffffffffff169060200190929190803573ffffffffffffffffffffffffffffffffffffffff169060200190929190803590602001909291905050506105a2565b005b6101b56004803603602081101561018957600080fd5b81019080803573ffffffffffffffffffffffffffffffffffffffff16906020019092919050505061064d565b6040518082815260200191505060405180910390f35b6101d361075f565b604051808273ffffffffffffffffffffffffffffffffffffffff1673ffffffffffffffffffffffffffffffffffffffff16815260200191505060405180910390f35b61021d610785565b6040518087815260200186815260200185815260200184815260200183151515158152602001828152602001965050505050505060405180910390f35b6102906004803603604081101561027057600080fd5b8101908080359060200190929190803590602001909291905050506107bc565b005b61029a6107c0565b604051808273ffffffffffffffffffffffffffffffffffffffff1673ffffffffffffffffffffffffffffffffffffffff16815260200191505060405180910390f35b610312600480360360408110156102f257600080fd5b8101908080359060200190929190803590602001909291905050506107e6565b005b61034a6004803603604081101561032a57600080fd5b8101908080359060200190929190803590602001909291905050506107ea565b6040518082815260200191505060405180910390f35b6103ac6004803603604081101561037657600080fd5b81019080803573ffffffffffffffffffffffffffffffffffffffff1690602001909291908035906020019092919050505061095e565b6040518082815260200191505060405180910390f35b6103ca610a93565b604051808273ffffffffffffffffffffffffffffffffffffffff1673ffffffffffffffffffffffffffffffffffffffff16815260200191505060405180910390f35b6104426004803603604081101561042257600080fd5b810190808035906020019092919080359060200190929190505050610ab9565b6040518082815260200191505060405180910390f35b610460610ba7565b604051808273ffffffffffffffffffffffffffffffffffffffff1673ffffffffffffffffffffffffffffffffffffffff16815260200191505060405180910390f35b6104d8600480360360408110156104b857600080fd5b810190808035906020019092919080359060200190929190505050610bcd565b005b610506600480360360208110156104f057600080fd5b8101908080359060200190929190505050610bd1565b6040518082815260200191505060405180910390f35b6105686004803603604081101561053257600080fd5b81019080803573ffffffffffffffffffffffffffffffffffffffff16906020019092919080359060200190929190505050610c58565b005b6105a06004803603604081101561058057600080fd5b810190808035906020019092919080359060200190929190505050610d02565b005b600160009054906101000a900473ffffffffffffffffffffffffffffffffffffffff1673ffffffffffffffffffffffffffffffffffffffff163373ffffffffffffffffffffffffffffffffffffffff1614610648576040517f08c379a000000000000000000000000000000000000000000000000000000000815260040180806020018281038252602a815260200180610d3b602a913960400191505060405180910390fd5b505050565b6000600960009054906101000a900473ffffffffffffffffffffffffffffffffffffffff1673ffffffffffffffffffffffffffffffffffffffff163373ffffffffffffffffffffffffffffffffffffffff16146106f5576040517f08c379a0000000000000000000000000000000000000000000000000000000008152600401808060200182810382526034815260200180610d076034913960400191505060405180910390fd5b33915081604051602001808273ffffffffffffffffffffffffffffffffffffffff1673ffffffffffffffffffffffffffffffffffffffff1660601b815260140191505060405160208183030381529060405280519060200120905080600a81905550809050919050565b600b60009054906101000a900473ffffffffffffffffffffffffffffffffffffffff1681565b60028060000154908060010154908060020154908060030154908060040160009054906101000a900460ff16908060050154905086565b5050565b600c60009054906101000a900473ffffffffffffffffffffffffffffffffffffffff1681565b5050565b6000600160009054906101000a900473ffffffffffffffffffffffffffffffffffffffff1673ffffffffffffffffffffffffffffffffffffffff163373ffffffffffffffffffffffffffffffffffffffff1614610892576040517f08c379a000000000000000000000000000000000000000000000000000000000815260040180806020018281038252602a815260200180610d3b602a913960400191505060405180910390fd5b6000600280015414156108af576000600260030181905550610950565b6001600280015414156108cc57600160026003018190555061094f565b6002806002015414156108e8576002806003018190555061094e565b60036002800154141561090557600360026003018190555061094d565b60046002800154141561092257600460026003018190555061094c565b60056002800154141561093f57600560026003018190555061094b565b60066002600301819055505b5b5b5b5b5b600260030154905092915050565b6000600160009054906101000a900473ffffffffffffffffffffffffffffffffffffffff1673ffffffffffffffffffffffffffffffffffffffff163373ffffffffffffffffffffffffffffffffffffffff1614610a06576040517f08c379a000000000000000000000000000000000000000000000000000000000815260040180806020018281038252602a815260200180610d3b602a913960400191505060405180910390fd5b3392508282604051602001808373ffffffffffffffffffffffffffffffffffffffff1673ffffffffffffffffffffffffffffffffffffffff1660601b81526014018281526020019250505060405160208183030381529060405280519060200120600260000181905550600160028001819055506064600260030181905550600260000154905092915050565b600960009054906101000a900473ffffffffffffffffffffffffffffffffffffffff1681565b6000600160009054906101000a900473ffffffffffffffffffffffffffffffffffffffff1673ffffffffffffffffffffffffffffffffffffffff163373ffffffffffffffffffffffffffffffffffffffff1614610b61576040517f08c379a000000000000000000000000000000000000000000000000000000000815260040180806020018281038252602a815260200180610d3b602a913960400191505060405180910390fd5b8282604051602001808381526020018281526020019250505060405160208183030381529060405280519060200120600260010181905550600260010154905092915050565b600160009054906101000a900473ffffffffffffffffffffffffffffffffffffffff1681565b5050565b6000600460028001541215610bf0576000600260050181905550610c4b565b60001515600260040160009054906101000a900460ff1615151415610c1f576001600260050181905550610c4a565b60011515600260040160009054906101000a900460ff1615151415610c4957600280600501819055505b5b5b6002600501549050919050565b600160009054906101000a900473ffffffffffffffffffffffffffffffffffffffff1673ffffffffffffffffffffffffffffffffffffffff163373ffffffffffffffffffffffffffffffffffffffff1614610cfe576040517f08c379a000000000000000000000000000000000000000000000000000000000815260040180806020018281038252602a815260200180610d3b602a913960400191505060405180910390fd5b5050565b505056fe4f6e6c792074686520746865207465737420666163696c6974792063616e20706572666f726d20746861742066756e6374696f6e4f6e6c79207468652070617469656e742063616e20706572666f726d20746861742066756e6374696f6ea265627a7a723158203da2deadc6992a967db7f13edf0a9840b26d7fa07e207e0afbabb8b120ea847364736f6c63430005100032",
  "source": "pragma solidity >=0.4.22 <0.7.0;\n\n/**\n * @title CST\n * @dev \n */\ncontract CST {\n\n    struct PatientInfo {\n        bytes32 patientID;\n        bytes32 requestID; \n        int     prog;\n        uint  statusMsg;\n        bool    result;\n        uint  resultMsg;\n    }\n    mapping (address=>PatientInfo) patients;\n    \n    //should this address be private?\n    address public patient; \n    PatientInfo public info;\n    bytes32 pid;\n    \n    address public testAdmin; \n    bytes32 testerID;\n    \n    address public lab; \n    bool    infected;\n    \n    address public permitted;\n    bytes32 permittedID;\n    bytes32 rid;\n    \n    modifier onlyPatient()\n    { require(msg.sender == patient); \n          _;\n    }\n   \n    modifier onlyTestAdmin()\n    { require(msg.sender == testAdmin); \n          _;\n    }\n   \n    modifier onlyLab()\n    { require(msg.sender == lab); \n          _;\n    }\n\n    constructor( ) public{\n        patient = msg.sender;\n        info.statusMsg = 400;\n        // \"Shouldn't be seeing this\";\n        info.prog = 0;\n    }\n    \n    /* * * * * * * * * * * * * * * * * * * * * * * * * * * * * * * * * * * * * * * * * * *\n     *                                                                                   *\n     *   The following function creates the patientID by hashing the patients address    *\n     *                                                                                   *\n     *   (Patient Only)                                                                  *\n     *                                                                                   *\n     * * * * * * * * * * * * * * * * * * * * * * * * * * * * * * * * * * * * * * * * * * */\n    function getPatientID( address from, bytes32 password) public returns (bytes32 pid) {\n        \n            require(\n                msg.sender == patient,\n                \"Only the patient can perform that function\"\n            );\n            from = msg.sender;\n            info.patientID = keccak256(abi.encodePacked(from, password)); \n            info.prog = 1;\n            info.statusMsg = 100;\n            // \"Just registered\";\n            return info.patientID;\n        }\n        \n    /* * * * * * * * * * * * * * * * * * * * * * * * * * * * * * * * * * * * * * * * * * *\n     *                                                                                   *\n     *   The following function creates the requestID by hashing the patientID           *\n     *                                                                                   *\n     *   (Patient Only)                                                                  *\n     *                                                                                   *\n     * * * * * * * * * * * * * * * * * * * * * * * * * * * * * * * * * * * * * * * * * * */\n    function getRequestID( bytes32 patientID, bytes32 password) public returns (bytes32 rid) {\n            require(\n                msg.sender == patient,\n                \"Only the patient can perform that function\"\n            );\n            info.requestID = keccak256(abi.encodePacked(patientID, password));\n            return info.requestID;\n        }\n        \n    /* * * * * * * * * * * * * * * * * * * * * * * * * * * * * * * * * * * * * * * * * * *\n     *                                                                                   *\n     *   The following function uses the prog variable to determine the current status.  *\n     *                                                                                   *\n     *   Key:                                                                            *\n     *   0 == unregistered           3 == sample shipped to lab                          *\n     *   1 == registered             4 == lab recieved sample                            *\n     *   2 == sample collected       5 == testing complete/result available              *\n     *                                                                                   *\n     *   (Patient Only)                                                                  *\n     *                                                                                   *\n     * * * * * * * * * * * * * * * * * * * * * * * * * * * * * * * * * * * * * * * * * * */\n    function getStatus( bytes32 patientID, bytes32 password) public returns (uint smsg){\n            require(\n                msg.sender == patient,\n                \"Only the patient can perform that function\"\n            );\n            \n            ///use uint instead of messages\n            \n            if(info.prog==0){\n                info.statusMsg = 0;\n                // \"Please generate a PatientID before continuing.\";\n            }\n            else if(info.prog==1){\n                info.statusMsg = 1;\n                // \"Thank you for registering. This message will be once you have been tested.\";\n            }\n            else if(info.prog==2){\n                info.statusMsg = 2;\n                // \"Thank you for getting tested. This message will be once your test is shipped to the lab.\";\n            }\n            else if(info.prog==3){\n                info.statusMsg = 3;\n                // \"Your test sample has been shipped to the lab. This message will be once the lab recieves your sample.\";\n            }\n            else if(info.prog==4){\n                info.statusMsg = 4;\n                // \"The lab has recieved your sample, and is currently testing it. This message will be once a result is found.\";\n            }\n            else if(info.prog==5){\n                info.statusMsg = 5;\n                // \"Your result is ready to view. Thank you for using Secure-19.\";\n            }\n            else{\n                info.statusMsg = 6;\n                // \"Something went wrong. Please contact support.\";\n            }\n            return info.statusMsg;\n        }\n    \n    /* * * * * * * * * * * * * * * * * * * * * * * * * * * * * * * * * * *\n     *                                                                   *\n     *   The following function displays a message detailing the reults, *\n     *   or a seperate message if no result is available.                *\n     *                                                                   *\n     *   (true)     == positive                                          *\n     *   (false)    == negative                                          *\n     *   (prog < 4) == unavailable                                       *\n     *                                                                   *\n     * * * * * * * * * * * * * * * * * * * * * * * * * * * * * * * * * * */\n    function accessResult(bytes32 requestID) public returns (uint rmsg){\n        \n            if(info.prog < 4){\n                info.resultMsg = 0;\n                // \"A test result for your sample is not ready yet. Please check back later.\";\n            }\n            else if(info.result==false){\n                info.resultMsg = 1;\n                // \"Your sample tested negative.\";\n            }\n            else if(info.result==true){\n                info.resultMsg = 2;\n                // \"Your sample tested positive.\";\n            }\n            return info.resultMsg;\n        }\n        \n        \n    function distPatientID(address tester, address labAddr, bytes32 password) public{\n        require(\n            msg.sender == patient,\n            \"Only the patient can perform that function\"\n        );\n    /*************will be handled outside as part of phase 4**************/            \n            \n    }\n        \n        \n    function distRequestID(address permitted, bytes32 password) public{\n        require(\n            msg.sender == patient,\n            \"Only the patient can perform that function\"\n        );\n    /*************will be handled outside as part of phase 4**************/    \n    }\n        \n        \n    function regTester(address tester) public returns (bytes32 tid){\n            require(\n                msg.sender == testAdmin,\n                \"Only the the test facility can perform that function\"\n            );\n            tester = msg.sender;\n            tid = keccak256(abi.encodePacked(tester));\n            testerID = tid;\n            return tid;\n    }\n    \n    function cSampleTaken(bytes32 patientID, bytes32 testerID)public {\n        //change patient prog number to indicate status change\n        //return confirmation message\n    /*************will be handled outside as part of phase 4**************/ \n    }\n    \n    function cSampleShipped(bytes32 patientID, bytes32 testerID)public {\n        //change patient prog number to indicate status change\n        //return confirmation message\n        //will be handled outside as part of phase 4 \n    }\n        \n    function cSampleTesting(bytes32 patientID, bytes32 labID)public {\n        //change patient prog number to indicate status change\n        //return confirmation message\n    /*************will be handled outside as part of phase 4**************/ \n    }\n        \n    function cResultUpload(bytes32 patientID, bytes32 testerID)public {\n        //change patient prog number to indicate status change\n        //return confirmation message\n    /*************will be handled outside as part of phase 4**************/ \n    }\n    \n}\n\n\n/*************\nSTRINGS SHOULD BE REPLACED WITH UNIQUE NUMBERS\nTHOSE NUMBERS CAN THEN  BE USED TO OUTPUT MESSAGES IN A WEB APP\n**************/ \n\n\n\n//Password\n//0x4265260000000000000000000000000000000000000000000000000000000000\n",
  "sourcePath": "/home/louismot/Work/CSE426/Secure19-Dapp/secure19-contract/contracts/CST.sol",
  "compiler": {
    "name": "solc",
    "version": "0.5.16+commit.9c3226ce.Emscripten.clang"
  },
  "schemaVersion": "3.2.5",
  "updatedAt": "2020-11-10T15:40:24.796Z",
  "networkType": "ethereum",
  "devdoc": {
    "methods": {},
    "title": "CST"
  },
  "userdoc": {
    "methods": {}
  }
}